{
  "_format": "hh-sol-artifact-1",
  "contractName": "TwoPlayerGame",
  "sourceName": "contracts/TwoPlayerGame.sol",
  "abi": [
    {
      "inputs": [],
      "name": "InvalidInitialization",
      "type": "error"
    },
    {
      "inputs": [],
      "name": "NotInitializing",
      "type": "error"
    },
    {
      "anonymous": false,
      "inputs": [
        {
          "indexed": false,
          "internalType": "uint64",
          "name": "version",
          "type": "uint64"
        }
      ],
      "name": "Initialized",
      "type": "event"
    },
    {
      "inputs": [],
      "name": "betAmount",
      "outputs": [
        {
          "internalType": "uint256",
          "name": "",
          "type": "uint256"
        }
      ],
      "stateMutability": "view",
      "type": "function"
    },
    {
      "inputs": [
        {
          "internalType": "address",
          "name": "winner",
          "type": "address"
        }
      ],
      "name": "declareWinner",
      "outputs": [],
      "stateMutability": "nonpayable",
      "type": "function"
    },
    {
      "inputs": [],
      "name": "deposit",
      "outputs": [],
      "stateMutability": "payable",
      "type": "function"
    },
    {
      "inputs": [],
      "name": "gameInProgress",
      "outputs": [
        {
          "internalType": "bool",
          "name": "",
          "type": "bool"
        }
      ],
      "stateMutability": "view",
      "type": "function"
    },
    {
      "inputs": [],
      "name": "initialize",
      "outputs": [],
      "stateMutability": "nonpayable",
      "type": "function"
    },
    {
      "inputs": [],
      "name": "owner",
      "outputs": [
        {
          "internalType": "address",
          "name": "",
          "type": "address"
        }
      ],
      "stateMutability": "view",
      "type": "function"
    },
    {
      "inputs": [],
      "name": "player1",
      "outputs": [
        {
          "internalType": "address",
          "name": "",
          "type": "address"
        }
      ],
      "stateMutability": "view",
      "type": "function"
    },
    {
      "inputs": [],
      "name": "player2",
      "outputs": [
        {
          "internalType": "address",
          "name": "",
          "type": "address"
        }
      ],
      "stateMutability": "view",
      "type": "function"
    },
    {
      "inputs": [],
      "name": "withdrawFunds",
      "outputs": [],
      "stateMutability": "nonpayable",
      "type": "function"
    }
  ],
  "bytecode": "0x6080604052348015600f57600080fd5b506110f58061001f6000396000f3fe6080604052600436106100865760003560e01c80638da5cb5b116100595780638da5cb5b1461010f578063d0e30db01461013a578063d24257c014610144578063d30895e41461016f578063db33f4f81461019a57610086565b806324600fc31461008b5780633fb64e75146100a257806359a5f12d146100cd5780638129fc1c146100f8575b600080fd5b34801561009757600080fd5b506100a06101c3565b005b3480156100ae57600080fd5b506100b76102ba565b6040516100c49190610b39565b60405180910390f35b3480156100d957600080fd5b506100e26102cd565b6040516100ef9190610b95565b60405180910390f35b34801561010457600080fd5b5061010d6102f3565b005b34801561011b57600080fd5b506101246104d3565b6040516101319190610b95565b60405180910390f35b6101426104f7565b005b34801561015057600080fd5b506101596107ee565b6040516101669190610bc9565b60405180910390f35b34801561017b57600080fd5b506101846107f4565b6040516101919190610b95565b60405180910390f35b3480156101a657600080fd5b506101c160048036038101906101bc9190610c15565b61081a565b005b60008054906101000a900473ffffffffffffffffffffffffffffffffffffffff1673ffffffffffffffffffffffffffffffffffffffff163373ffffffffffffffffffffffffffffffffffffffff1614610251576040517f08c379a000000000000000000000000000000000000000000000000000000000815260040161024890610cc5565b60405180910390fd5b60008054906101000a900473ffffffffffffffffffffffffffffffffffffffff1673ffffffffffffffffffffffffffffffffffffffff166108fc479081150290604051600060405180830381858888f193505050501580156102b7573d6000803e3d6000fd5b50565b600460009054906101000a900460ff1681565b600260009054906101000a900473ffffffffffffffffffffffffffffffffffffffff1681565b60006102fd610af6565b905060008160000160089054906101000a900460ff1615905060008260000160009054906101000a900467ffffffffffffffff1690506000808267ffffffffffffffff1614801561034b5750825b9050600060018367ffffffffffffffff16148015610380575060003073ffffffffffffffffffffffffffffffffffffffff163b145b90508115801561038e575080155b156103c5576040517ff92ee8a900000000000000000000000000000000000000000000000000000000815260040160405180910390fd5b60018560000160006101000a81548167ffffffffffffffff021916908367ffffffffffffffff16021790555083156104155760018560000160086101000a81548160ff0219169083151502179055505b336000806101000a81548173ffffffffffffffffffffffffffffffffffffffff021916908373ffffffffffffffffffffffffffffffffffffffff1602179055506000600460006101000a81548160ff02191690831515021790555083156104cc5760008560000160086101000a81548160ff0219169083151502179055507fc7f505b2f371ae2175ee4913f4499e1f2633a7b5936321eed1cdaeb6115181d260016040516104c39190610d3e565b60405180910390a15b5050505050565b60008054906101000a900473ffffffffffffffffffffffffffffffffffffffff1681565b600460009054906101000a900460ff1615610547576040517f08c379a000000000000000000000000000000000000000000000000000000000815260040161053e90610da5565b60405180910390fd5b6000341161058a576040517f08c379a000000000000000000000000000000000000000000000000000000000815260040161058190610e37565b60405180910390fd5b60008054906101000a900473ffffffffffffffffffffffffffffffffffffffff1673ffffffffffffffffffffffffffffffffffffffff163373ffffffffffffffffffffffffffffffffffffffff1603610618576040517f08c379a000000000000000000000000000000000000000000000000000000000815260040161060f90610ea3565b60405180910390fd5b600073ffffffffffffffffffffffffffffffffffffffff16600160009054906101000a900473ffffffffffffffffffffffffffffffffffffffff1673ffffffffffffffffffffffffffffffffffffffff16036106bb5733600160006101000a81548173ffffffffffffffffffffffffffffffffffffffff021916908373ffffffffffffffffffffffffffffffffffffffff160217905550346003819055506107ec565b600160009054906101000a900473ffffffffffffffffffffffffffffffffffffffff1673ffffffffffffffffffffffffffffffffffffffff163373ffffffffffffffffffffffffffffffffffffffff160361074b576040517f08c379a000000000000000000000000000000000000000000000000000000000815260040161074290610f0f565b60405180910390fd5b600354341461078f576040517f08c379a000000000000000000000000000000000000000000000000000000000815260040161078690610fa1565b60405180910390fd5b33600260006101000a81548173ffffffffffffffffffffffffffffffffffffffff021916908373ffffffffffffffffffffffffffffffffffffffff1602179055506001600460006101000a81548160ff0219169083151502179055505b565b60035481565b600160009054906101000a900473ffffffffffffffffffffffffffffffffffffffff1681565b60008054906101000a900473ffffffffffffffffffffffffffffffffffffffff1673ffffffffffffffffffffffffffffffffffffffff163373ffffffffffffffffffffffffffffffffffffffff16146108a8576040517f08c379a000000000000000000000000000000000000000000000000000000000815260040161089f90610cc5565b60405180910390fd5b600460009054906101000a900460ff166108f7576040517f08c379a00000000000000000000000000000000000000000000000000000000081526004016108ee9061100d565b60405180910390fd5b600160009054906101000a900473ffffffffffffffffffffffffffffffffffffffff1673ffffffffffffffffffffffffffffffffffffffff168173ffffffffffffffffffffffffffffffffffffffff1614806109a05750600260009054906101000a900473ffffffffffffffffffffffffffffffffffffffff1673ffffffffffffffffffffffffffffffffffffffff168173ffffffffffffffffffffffffffffffffffffffff16145b6109df576040517f08c379a00000000000000000000000000000000000000000000000000000000081526004016109d69061109f565b60405180910390fd5b600047905060008054906101000a900473ffffffffffffffffffffffffffffffffffffffff1673ffffffffffffffffffffffffffffffffffffffff166108fc829081150290604051600060405180830381858888f19350505050158015610a4a573d6000803e3d6000fd5b506000600160006101000a81548173ffffffffffffffffffffffffffffffffffffffff021916908373ffffffffffffffffffffffffffffffffffffffff1602179055506000600260006101000a81548173ffffffffffffffffffffffffffffffffffffffff021916908373ffffffffffffffffffffffffffffffffffffffff16021790555060006003819055506000600460006101000a81548160ff0219169083151502179055505050565b60007ff0c57e16840df040f15088dc2f81fe391c3923bec73e23a9662efc9c229c6a00905090565b60008115159050919050565b610b3381610b1e565b82525050565b6000602082019050610b4e6000830184610b2a565b92915050565b600073ffffffffffffffffffffffffffffffffffffffff82169050919050565b6000610b7f82610b54565b9050919050565b610b8f81610b74565b82525050565b6000602082019050610baa6000830184610b86565b92915050565b6000819050919050565b610bc381610bb0565b82525050565b6000602082019050610bde6000830184610bba565b92915050565b600080fd5b610bf281610b74565b8114610bfd57600080fd5b50565b600081359050610c0f81610be9565b92915050565b600060208284031215610c2b57610c2a610be4565b5b6000610c3984828501610c00565b91505092915050565b600082825260208201905092915050565b7f4f6e6c7920746865206f776e65722063616e2063616c6c20746869732066756e60008201527f6374696f6e000000000000000000000000000000000000000000000000000000602082015250565b6000610caf602583610c42565b9150610cba82610c53565b604082019050919050565b60006020820190508181036000830152610cde81610ca2565b9050919050565b6000819050919050565b600067ffffffffffffffff82169050919050565b6000819050919050565b6000610d28610d23610d1e84610ce5565b610d03565b610cef565b9050919050565b610d3881610d0d565b82525050565b6000602082019050610d536000830184610d2f565b92915050565b7f412067616d6520697320616c726561647920696e2070726f6772657373000000600082015250565b6000610d8f601d83610c42565b9150610d9a82610d59565b602082019050919050565b60006020820190508181036000830152610dbe81610d82565b9050919050565b7f4465706f73697420616d6f756e74206d7573742062652067726561746572207460008201527f68616e2030000000000000000000000000000000000000000000000000000000602082015250565b6000610e21602583610c42565b9150610e2c82610dc5565b604082019050919050565b60006020820190508181036000830152610e5081610e14565b9050919050565b7f4f776e65722063616e6e6f74206265206120706c617965720000000000000000600082015250565b6000610e8d601883610c42565b9150610e9882610e57565b602082019050919050565b60006020820190508181036000830152610ebc81610e80565b9050919050565b7f596f752061726520616c726561647920706c6179657220310000000000000000600082015250565b6000610ef9601883610c42565b9150610f0482610ec3565b602082019050919050565b60006020820190508181036000830152610f2881610eec565b9050919050565b7f4465706f73697420616d6f756e74206d757374206d6174636820706c6179657260008201527f2031277320626574000000000000000000000000000000000000000000000000602082015250565b6000610f8b602883610c42565b9150610f9682610f2f565b604082019050919050565b60006020820190508181036000830152610fba81610f7e565b9050919050565b7f4e6f2067616d6520696e2070726f677265737300000000000000000000000000600082015250565b6000610ff7601383610c42565b915061100282610fc1565b602082019050919050565b6000602082019050818103600083015261102681610fea565b9050919050565b7f57696e6e6572206d757374206265206f6e65206f662074686520706c6179657260008201527f7300000000000000000000000000000000000000000000000000000000000000602082015250565b6000611089602183610c42565b91506110948261102d565b604082019050919050565b600060208201905081810360008301526110b88161107c565b905091905056fea26469706673582212202e5ecaa1dd53025383879b39c8e9ea25583225521b03544d4324646de398f1a764736f6c634300081c0033",
  "linkReferences": {},
  "deployedLinkReferences": {}
}